{
  "address": "0x86a07434Da8fabFf8D8B3a52E66fa0a7B268e5FB",
  "abi": [
    {
      "inputs": [],
      "stateMutability": "nonpayable",
      "type": "constructor"
    },
    {
      "anonymous": false,
      "inputs": [
        {
          "indexed": true,
          "internalType": "address",
          "name": "owner",
          "type": "address"
        },
        {
          "indexed": true,
          "internalType": "address",
          "name": "approved",
          "type": "address"
        },
        {
          "indexed": true,
          "internalType": "uint256",
          "name": "tokenId",
          "type": "uint256"
        }
      ],
      "name": "Approval",
      "type": "event"
    },
    {
      "anonymous": false,
      "inputs": [
        {
          "indexed": true,
          "internalType": "address",
          "name": "owner",
          "type": "address"
        },
        {
          "indexed": true,
          "internalType": "address",
          "name": "operator",
          "type": "address"
        },
        {
          "indexed": false,
          "internalType": "bool",
          "name": "approved",
          "type": "bool"
        }
      ],
      "name": "ApprovalForAll",
      "type": "event"
    },
    {
      "anonymous": false,
      "inputs": [
        {
          "indexed": true,
          "internalType": "address",
          "name": "previousOwner",
          "type": "address"
        },
        {
          "indexed": true,
          "internalType": "address",
          "name": "newOwner",
          "type": "address"
        }
      ],
      "name": "OwnershipTransferred",
      "type": "event"
    },
    {
      "anonymous": false,
      "inputs": [
        {
          "indexed": false,
          "internalType": "uint256",
          "name": "level",
          "type": "uint256"
        }
      ],
      "name": "TokensUpdated",
      "type": "event"
    },
    {
      "anonymous": false,
      "inputs": [
        {
          "indexed": true,
          "internalType": "address",
          "name": "from",
          "type": "address"
        },
        {
          "indexed": true,
          "internalType": "address",
          "name": "to",
          "type": "address"
        },
        {
          "indexed": true,
          "internalType": "uint256",
          "name": "tokenId",
          "type": "uint256"
        }
      ],
      "name": "Transfer",
      "type": "event"
    },
    {
      "inputs": [
        {
          "internalType": "address",
          "name": "to",
          "type": "address"
        },
        {
          "internalType": "uint256",
          "name": "tokenId",
          "type": "uint256"
        }
      ],
      "name": "approve",
      "outputs": [],
      "stateMutability": "nonpayable",
      "type": "function"
    },
    {
      "inputs": [
        {
          "internalType": "address",
          "name": "owner",
          "type": "address"
        }
      ],
      "name": "balanceOf",
      "outputs": [
        {
          "internalType": "uint256",
          "name": "",
          "type": "uint256"
        }
      ],
      "stateMutability": "view",
      "type": "function"
    },
    {
      "inputs": [
        {
          "internalType": "uint256",
          "name": "tokenId",
          "type": "uint256"
        }
      ],
      "name": "getApproved",
      "outputs": [
        {
          "internalType": "address",
          "name": "",
          "type": "address"
        }
      ],
      "stateMutability": "view",
      "type": "function"
    },
    {
      "inputs": [
        {
          "internalType": "string",
          "name": "mob",
          "type": "string"
        }
      ],
      "name": "hunt",
      "outputs": [],
      "stateMutability": "nonpayable",
      "type": "function"
    },
    {
      "inputs": [
        {
          "internalType": "address",
          "name": "owner",
          "type": "address"
        },
        {
          "internalType": "address",
          "name": "operator",
          "type": "address"
        }
      ],
      "name": "isApprovedForAll",
      "outputs": [
        {
          "internalType": "bool",
          "name": "",
          "type": "bool"
        }
      ],
      "stateMutability": "view",
      "type": "function"
    },
    {
      "inputs": [],
      "name": "name",
      "outputs": [
        {
          "internalType": "string",
          "name": "",
          "type": "string"
        }
      ],
      "stateMutability": "view",
      "type": "function"
    },
    {
      "inputs": [],
      "name": "owner",
      "outputs": [
        {
          "internalType": "address",
          "name": "",
          "type": "address"
        }
      ],
      "stateMutability": "view",
      "type": "function"
    },
    {
      "inputs": [
        {
          "internalType": "uint256",
          "name": "tokenId",
          "type": "uint256"
        }
      ],
      "name": "ownerOf",
      "outputs": [
        {
          "internalType": "address",
          "name": "",
          "type": "address"
        }
      ],
      "stateMutability": "view",
      "type": "function"
    },
    {
      "inputs": [],
      "name": "renounceOwnership",
      "outputs": [],
      "stateMutability": "nonpayable",
      "type": "function"
    },
    {
      "inputs": [
        {
          "internalType": "address",
          "name": "to",
          "type": "address"
        }
      ],
      "name": "safeMint",
      "outputs": [],
      "stateMutability": "nonpayable",
      "type": "function"
    },
    {
      "inputs": [
        {
          "internalType": "address",
          "name": "from",
          "type": "address"
        },
        {
          "internalType": "address",
          "name": "to",
          "type": "address"
        },
        {
          "internalType": "uint256",
          "name": "tokenId",
          "type": "uint256"
        }
      ],
      "name": "safeTransferFrom",
      "outputs": [],
      "stateMutability": "nonpayable",
      "type": "function"
    },
    {
      "inputs": [
        {
          "internalType": "address",
          "name": "from",
          "type": "address"
        },
        {
          "internalType": "address",
          "name": "to",
          "type": "address"
        },
        {
          "internalType": "uint256",
          "name": "tokenId",
          "type": "uint256"
        },
        {
          "internalType": "bytes",
          "name": "_data",
          "type": "bytes"
        }
      ],
      "name": "safeTransferFrom",
      "outputs": [],
      "stateMutability": "nonpayable",
      "type": "function"
    },
    {
      "inputs": [
        {
          "internalType": "address",
          "name": "operator",
          "type": "address"
        },
        {
          "internalType": "bool",
          "name": "approved",
          "type": "bool"
        }
      ],
      "name": "setApprovalForAll",
      "outputs": [],
      "stateMutability": "nonpayable",
      "type": "function"
    },
    {
      "inputs": [
        {
          "internalType": "bytes4",
          "name": "interfaceId",
          "type": "bytes4"
        }
      ],
      "name": "supportsInterface",
      "outputs": [
        {
          "internalType": "bool",
          "name": "",
          "type": "bool"
        }
      ],
      "stateMutability": "view",
      "type": "function"
    },
    {
      "inputs": [],
      "name": "symbol",
      "outputs": [
        {
          "internalType": "string",
          "name": "",
          "type": "string"
        }
      ],
      "stateMutability": "view",
      "type": "function"
    },
    {
      "inputs": [
        {
          "internalType": "uint256",
          "name": "index",
          "type": "uint256"
        }
      ],
      "name": "tokenByIndex",
      "outputs": [
        {
          "internalType": "uint256",
          "name": "",
          "type": "uint256"
        }
      ],
      "stateMutability": "view",
      "type": "function"
    },
    {
      "inputs": [
        {
          "internalType": "address",
          "name": "owner",
          "type": "address"
        },
        {
          "internalType": "uint256",
          "name": "index",
          "type": "uint256"
        }
      ],
      "name": "tokenOfOwnerByIndex",
      "outputs": [
        {
          "internalType": "uint256",
          "name": "",
          "type": "uint256"
        }
      ],
      "stateMutability": "view",
      "type": "function"
    },
    {
      "inputs": [
        {
          "internalType": "uint256",
          "name": "tokenId",
          "type": "uint256"
        }
      ],
      "name": "tokenURI",
      "outputs": [
        {
          "internalType": "string",
          "name": "",
          "type": "string"
        }
      ],
      "stateMutability": "view",
      "type": "function"
    },
    {
      "inputs": [],
      "name": "totalSupply",
      "outputs": [
        {
          "internalType": "uint256",
          "name": "",
          "type": "uint256"
        }
      ],
      "stateMutability": "view",
      "type": "function"
    },
    {
      "inputs": [
        {
          "internalType": "address",
          "name": "from",
          "type": "address"
        },
        {
          "internalType": "address",
          "name": "to",
          "type": "address"
        },
        {
          "internalType": "uint256",
          "name": "tokenId",
          "type": "uint256"
        }
      ],
      "name": "transferFrom",
      "outputs": [],
      "stateMutability": "nonpayable",
      "type": "function"
    },
    {
      "inputs": [
        {
          "internalType": "address",
          "name": "newOwner",
          "type": "address"
        }
      ],
      "name": "transferOwnership",
      "outputs": [],
      "stateMutability": "nonpayable",
      "type": "function"
    }
  ],
  "transactionHash": "0xad601201770bb525308738079922615f6025fc286ce49ee49f01b1caf57f1311",
  "args": [],
  "numDeployments": 5,
  "solcInputHash": "937a2eb54dbb098ab6a0f0d1ec5d59e4",
  "bytecode": "0x60e06040908152608081815290620024ed60a039600e9062000022908262000205565b506040518060600160405280604081526020016200256d60409139600f906200004c908262000205565b506040518060600160405280604081526020016200252d6040913960109062000076908262000205565b503480156200008457600080fd5b506040518060400160405280600b81526020016a12db185e5d1b881913919560aa1b8152506040518060400160405280600581526020016412d113919560da1b8152508160009081620000d8919062000205565b506001620000e7828262000205565b50505062000104620000fe6200010a60201b60201c565b6200010e565b620002d1565b3390565b600b80546001600160a01b038381166001600160a01b0319831681179093556040519116919082907f8be0079c531659141344cd1fd0a4f28419497f9722a3daafe3b4186f6b6457e090600090a35050565b634e487b7160e01b600052604160045260246000fd5b600181811c908216806200018b57607f821691505b602082108103620001ac57634e487b7160e01b600052602260045260246000fd5b50919050565b601f8211156200020057600081815260208120601f850160051c81016020861015620001db5750805b601f850160051c820191505b81811015620001fc57828155600101620001e7565b5050505b505050565b81516001600160401b0381111562000221576200022162000160565b620002398162000232845462000176565b84620001b2565b602080601f831160018114620002715760008415620002585750858301515b600019600386901b1c1916600185901b178555620001fc565b600085815260208120601f198616915b82811015620002a25788860151825594840194600190910190840162000281565b5085821015620002c15787850151600019600388901b60f8161c191681555b5050505050600190811b01905550565b61220c80620002e16000396000f3fe608060405234801561001057600080fd5b50600436106101375760003560e01c80636352211e116100b857806395d89b411161007c57806395d89b411461027c578063a22cb46514610284578063b88d4fde14610297578063c87b56dd146102aa578063e985e9c5146102bd578063f2fde38b146102f957600080fd5b80636352211e1461022a5780636c76d3be1461023d57806370a0823114610250578063715018a6146102635780638da5cb5b1461026b57600080fd5b806323b872dd116100ff57806323b872dd146101cb5780632f745c59146101de57806340d097c3146101f157806342842e0e146102045780634f6ccce71461021757600080fd5b806301ffc9a71461013c57806306fdde0314610164578063081812fc14610179578063095ea7b3146101a457806318160ddd146101b9575b600080fd5b61014f61014a366004611b6a565b61030c565b60405190151581526020015b60405180910390f35b61016c61031d565b60405161015b9190611bd7565b61018c610187366004611bea565b6103af565b6040516001600160a01b03909116815260200161015b565b6101b76101b2366004611c1f565b61043b565b005b6008545b60405190815260200161015b565b6101b76101d9366004611c49565b610546565b6101bd6101ec366004611c1f565b610577565b6101b76101ff366004611c85565b61060c565b6101b7610212366004611c49565b6106d9565b6101bd610225366004611bea565b6106f4565b61018c610238366004611bea565b610786565b6101b761024b366004611ca0565b6107fc565b6101bd61025e366004611c85565b6108d6565b6101b761095b565b600b546001600160a01b031661018c565b61016c6109c1565b6101b7610292366004611d12565b6109d0565b6101b76102a5366004611d64565b6109db565b61016c6102b8366004611bea565b610a13565b61014f6102cb366004611e40565b6001600160a01b03918216600090815260056020908152604080832093909416825291909152205460ff1690565b6101b7610307366004611c85565b610a1e565b600061031782610ae9565b92915050565b60606000805461032c90611e73565b80601f016020809104026020016040519081016040528092919081815260200182805461035890611e73565b80156103a55780601f1061037a576101008083540402835291602001916103a5565b820191906000526020600020905b81548152906001019060200180831161038857829003601f168201915b5050505050905090565b60006103ba82610b0e565b61041f5760405162461bcd60e51b815260206004820152602b60248201527f4b495031373a20617070726f76656420717565727920666f72206e6f6e65786960448201526a39ba32b73a103a37b5b2b760a91b60648201526084015b60405180910390fd5b506000908152600460205260409020546001600160a01b031690565b600061044682610786565b9050806001600160a01b0316836001600160a01b0316036104a95760405162461bcd60e51b815260206004820181905260248201527f4b495031373a20617070726f76616c20746f2063757272656e74206f776e65726044820152606401610416565b336001600160a01b03821614806104c557506104c581336102cb565b6105375760405162461bcd60e51b815260206004820152603760248201527f4b495031373a20617070726f76652063616c6c6572206973206e6f74206f776e60448201527f6572206e6f7220617070726f76656420666f7220616c6c0000000000000000006064820152608401610416565b6105418383610b2b565b505050565b6105503382610b99565b61056c5760405162461bcd60e51b815260040161041690611ead565b610541838383610c82565b6000610582836108d6565b82106105e35760405162461bcd60e51b815260206004820152602a60248201527f4b49503137456e756d657261626c653a206f776e657220696e646578206f7574604482015269206f6620626f756e647360b01b6064820152608401610416565b506001600160a01b03919091166000908152600660209081526040808320938352929052205490565b6000610617600c5490565b9050610627600c80546001019055565b6106318282610e27565b6000818152600d60205260408120819055600e805461064f90611e73565b80601f016020809104026020016040519081016040528092919081815260200182805461067b90611e73565b80156106c85780601f1061069d576101008083540402835291602001916106c8565b820191906000526020600020905b8154815290600101906020018083116106ab57829003601f168201915b505050505090506105418282610e41565b610541838383604051806020016040528060008152506109db565b60006106ff60085490565b82106107615760405162461bcd60e51b815260206004820152602b60248201527f4b49503137456e756d657261626c653a20676c6f62616c20696e646578206f7560448201526a74206f6620626f756e647360a81b6064820152608401610416565b6008828154811061077457610774611efd565b90600052602060002001549050919050565b6000818152600260205260408120546001600160a01b0316806103175760405162461bcd60e51b815260206004820152602860248201527f4b495031373a206f776e657220717565727920666f72206e6f6e657869737465604482015267373a103a37b5b2b760c11b6064820152608401610416565b61085682828080601f01602080910402602001604051908101604052809392919081815260200183838082843760009201919091525050604080518082019091526003815262185b9d60ea1b60208201529150610ec49050565b15610869576108656019610f1d565b5050565b6108c682828080601f0160208091040260200160405190810160405280939291908181526020018383808284376000920191909152505060408051808201909152600681526539b834b232b960d11b60208201529150610ec49050565b15610865576108656101f4610f1d565b60006001600160a01b03821661093f5760405162461bcd60e51b815260206004820152602860248201527f4b495031373a2061646472657373207a65726f206973206e6f7420612076616c60448201526734b21037bbb732b960c11b6064820152608401610416565b506001600160a01b031660009081526003602052604090205490565b600b546001600160a01b031633146109b55760405162461bcd60e51b815260206004820181905260248201527f4f776e61626c653a2063616c6c6572206973206e6f7420746865206f776e65726044820152606401610416565b6109bf60006110c8565b565b60606001805461032c90611e73565b61086533838361111a565b6109e53383610b99565b610a015760405162461bcd60e51b815260040161041690611ead565b610a0d848484846111e8565b50505050565b60606103178261122d565b600b546001600160a01b03163314610a785760405162461bcd60e51b815260206004820181905260248201527f4f776e61626c653a2063616c6c6572206973206e6f7420746865206f776e65726044820152606401610416565b6001600160a01b038116610add5760405162461bcd60e51b815260206004820152602660248201527f4f776e61626c653a206e6577206f776e657220697320746865207a65726f206160448201526564647265737360d01b6064820152608401610416565b610ae6816110c8565b50565b60006001600160e01b0319821663780e9d6360e01b148061031757506103178261139a565b6000908152600260205260409020546001600160a01b0316151590565b600081815260046020526040902080546001600160a01b0319166001600160a01b0384169081179091558190610b6082610786565b6001600160a01b03167f8c5be1e5ebec7d5bd14f71427d1e84f3dd0314c0f7b2291e5b200ac8c7c3b92560405160405180910390a45050565b6000610ba482610b0e565b610c045760405162461bcd60e51b815260206004820152602b60248201527f4b495031373a206f70657261746f7220717565727920666f72206e6f6e65786960448201526a39ba32b73a103a37b5b2b760a91b6064820152608401610416565b6000610c0f83610786565b9050806001600160a01b0316846001600160a01b03161480610c5657506001600160a01b0380821660009081526005602090815260408083209388168352929052205460ff165b80610c7a5750836001600160a01b0316610c6f846103af565b6001600160a01b0316145b949350505050565b826001600160a01b0316610c9582610786565b6001600160a01b031614610cf75760405162461bcd60e51b8152602060048201526024808201527f4b495031373a207472616e736665722066726f6d20696e636f7272656374206f6044820152633bb732b960e11b6064820152608401610416565b6001600160a01b038216610d595760405162461bcd60e51b815260206004820152602360248201527f4b495031373a207472616e7366657220746f20746865207a65726f206164647260448201526265737360e81b6064820152608401610416565b610d648383836113ea565b610d6f600082610b2b565b6001600160a01b0383166000908152600360205260408120805460019290610d98908490611f29565b90915550506001600160a01b0382166000908152600360205260408120805460019290610dc6908490611f3c565b909155505060008181526002602052604080822080546001600160a01b0319166001600160a01b0386811691821790925591518493918716917fddf252ad1be2c89b69c2b068fc378daa952ba7f163c4a11628f55a4df523b3ef91a4505050565b6108658282604051806020016040528060008152506113f5565b610e4a82610b0e565b610eac5760405162461bcd60e51b815260206004820152602d60248201527f4b4950313755524953746f726167653a2055524920736574206f66206e6f6e6560448201526c3c34b9ba32b73a103a37b5b2b760991b6064820152608401610416565b6000828152600a602052604090206105418282611f9d565b600081604051602001610ed7919061205d565b6040516020818303038152906040528051906020012083604051602001610efe919061205d565b6040516020818303038152906040528051906020012014905092915050565b6000610f28600c5490565b905081600d60008381526020019081526020016000206000828254610f4d9190611f3c565b90915550506000818152600d60205260409020546103e8101561103757610ffe8160108054610f7b90611e73565b80601f0160208091040260200160405190810160405280929190818152602001828054610fa790611e73565b8015610ff45780601f10610fc957610100808354040283529160200191610ff4565b820191906000526020600020905b815481529060010190602001808311610fd757829003601f168201915b5050505050610e41565b604051605081527ff9f09f023fbfb7bdeb798aa50802e70859bc440481c704717e1030095c13e782906020015b60405180910390a15050565b6000818152600d6020526040902054603210156110905761105f81600f8054610f7b90611e73565b604051603281527ff9f09f023fbfb7bdeb798aa50802e70859bc440481c704717e1030095c13e7829060200161102b565b604051600081527ff9f09f023fbfb7bdeb798aa50802e70859bc440481c704717e1030095c13e7829060200160405180910390a15050565b600b80546001600160a01b038381166001600160a01b0319831681179093556040519116919082907f8be0079c531659141344cd1fd0a4f28419497f9722a3daafe3b4186f6b6457e090600090a35050565b816001600160a01b0316836001600160a01b03160361117b5760405162461bcd60e51b815260206004820152601860248201527f4b495031373a20617070726f766520746f2063616c6c657200000000000000006044820152606401610416565b6001600160a01b03838116600081815260056020908152604080832094871680845294825291829020805460ff191686151590811790915591519182527f17307eab39ab6107e8899845ad3d59bd9653f200f220920489ca2b5937696c31910160405180910390a3505050565b6111f3848484610c82565b6111ff8484848461143b565b8061121157506112118484848461152e565b610a0d5760405162461bcd60e51b815260040161041690612079565b606061123882610b0e565b61129d5760405162461bcd60e51b815260206004820152603060248201527f4b4950313755524953746f726167653a2055524920717565727920666f72206e60448201526f37b732bc34b9ba32b73a103a37b5b2b760811b6064820152608401610416565b6000828152600a6020526040812080546112b690611e73565b80601f01602080910402602001604051908101604052809291908181526020018280546112e290611e73565b801561132f5780601f106113045761010080835404028352916020019161132f565b820191906000526020600020905b81548152906001019060200180831161131257829003601f168201915b50505050509050600061134d60408051602081019091526000815290565b9050805160000361135f575092915050565b8151156113915780826040516020016113799291906120e0565b60405160208183030381529060405292505050919050565b610c7a846115f5565b60006001600160e01b031982166380ac58cd60e01b14806113cb57506001600160e01b03198216635b5e139f60e01b145b8061031757506301ffc9a760e01b6001600160e01b0319831614610317565b6105418383836116cc565b6113ff8383611784565b61140c600084848461143b565b8061141f575061141f600084848461152e565b6105415760405162461bcd60e51b815260040161041690612079565b60006001600160a01b0384163b1561152357604051636745782b60e01b81526001600160a01b03851690636745782b9061147f90339089908890889060040161210f565b6020604051808303816000875af19250505080156114ba575060408051601f3d908101601f191682019092526114b79181019061214c565b60015b611509573d8080156114e8576040519150601f19603f3d011682016040523d82523d6000602084013e6114ed565b606091505b508051600003611501576000915050610c7a565b805181602001fd5b6001600160e01b031916636745782b60e01b149050610c7a565b506001949350505050565b60006001600160a01b0384163b1561152357604051630a85bd0160e11b81526001600160a01b0385169063150b7a029061157290339089908890889060040161210f565b6020604051808303816000875af19250505080156115ad575060408051601f3d908101601f191682019092526115aa9181019061214c565b60015b6115db573d8080156114e8576040519150601f19603f3d011682016040523d82523d6000602084013e6114ed565b6001600160e01b031916630a85bd0160e11b149050610c7a565b606061160082610b0e565b6116635760405162461bcd60e51b815260206004820152602e60248201527f4b495031374d657461646174613a2055524920717565727920666f72206e6f6e60448201526d32bc34b9ba32b73a103a37b5b2b760911b6064820152608401610416565b600061167a60408051602081019091526000815290565b9050600081511161169a57604051806020016040528060008152506116c5565b806116a4846118c3565b6040516020016116b59291906120e0565b6040516020818303038152906040525b9392505050565b6001600160a01b0383166117275761172281600880546000838152600960205260408120829055600182018355919091527ff3f7a9fe364faab93b216da50a3214154f22a0a2b415b23a84c8169e8b636ee30155565b61174a565b816001600160a01b0316836001600160a01b03161461174a5761174a83826119c4565b6001600160a01b0382166117615761054181611a61565b826001600160a01b0316826001600160a01b031614610541576105418282611b10565b6001600160a01b0382166117da5760405162461bcd60e51b815260206004820152601f60248201527f4b495031373a206d696e7420746f20746865207a65726f2061646472657373006044820152606401610416565b6117e381610b0e565b156118305760405162461bcd60e51b815260206004820152601b60248201527f4b495031373a20746f6b656e20616c7265616479206d696e74656400000000006044820152606401610416565b61183c600083836113ea565b6001600160a01b0382166000908152600360205260408120805460019290611865908490611f3c565b909155505060008181526002602052604080822080546001600160a01b0319166001600160a01b03861690811790915590518392907fddf252ad1be2c89b69c2b068fc378daa952ba7f163c4a11628f55a4df523b3ef908290a45050565b6060816000036118ea5750506040805180820190915260018152600360fc1b602082015290565b8160005b811561191457806118fe81612169565b915061190d9050600a83612198565b91506118ee565b60008167ffffffffffffffff81111561192f5761192f611d4e565b6040519080825280601f01601f191660200182016040528015611959576020820181803683370190505b5090505b8415610c7a5761196e600183611f29565b915061197b600a866121ac565b611986906030611f3c565b60f81b81838151811061199b5761199b611efd565b60200101906001600160f81b031916908160001a9053506119bd600a86612198565b945061195d565b600060016119d1846108d6565b6119db9190611f29565b600083815260076020526040902054909150808214611a2e576001600160a01b03841660009081526006602090815260408083208584528252808320548484528184208190558352600790915290208190555b5060009182526007602090815260408084208490556001600160a01b039094168352600681528383209183525290812055565b600854600090611a7390600190611f29565b60008381526009602052604081205460088054939450909284908110611a9b57611a9b611efd565b906000526020600020015490508060088381548110611abc57611abc611efd565b6000918252602080832090910192909255828152600990915260408082208490558582528120556008805480611af457611af46121c0565b6001900381819060005260206000200160009055905550505050565b6000611b1b836108d6565b6001600160a01b039093166000908152600660209081526040808320868452825280832085905593825260079052919091209190915550565b6001600160e01b031981168114610ae657600080fd5b600060208284031215611b7c57600080fd5b81356116c581611b54565b60005b83811015611ba2578181015183820152602001611b8a565b50506000910152565b60008151808452611bc3816020860160208601611b87565b601f01601f19169290920160200192915050565b6020815260006116c56020830184611bab565b600060208284031215611bfc57600080fd5b5035919050565b80356001600160a01b0381168114611c1a57600080fd5b919050565b60008060408385031215611c3257600080fd5b611c3b83611c03565b946020939093013593505050565b600080600060608486031215611c5e57600080fd5b611c6784611c03565b9250611c7560208501611c03565b9150604084013590509250925092565b600060208284031215611c9757600080fd5b6116c582611c03565b60008060208385031215611cb357600080fd5b823567ffffffffffffffff80821115611ccb57600080fd5b818501915085601f830112611cdf57600080fd5b813581811115611cee57600080fd5b866020828501011115611d0057600080fd5b60209290920196919550909350505050565b60008060408385031215611d2557600080fd5b611d2e83611c03565b915060208301358015158114611d4357600080fd5b809150509250929050565b634e487b7160e01b600052604160045260246000fd5b60008060008060808587031215611d7a57600080fd5b611d8385611c03565b9350611d9160208601611c03565b925060408501359150606085013567ffffffffffffffff80821115611db557600080fd5b818701915087601f830112611dc957600080fd5b813581811115611ddb57611ddb611d4e565b604051601f8201601f19908116603f01168101908382118183101715611e0357611e03611d4e565b816040528281528a6020848701011115611e1c57600080fd5b82602086016020830137600060208483010152809550505050505092959194509250565b60008060408385031215611e5357600080fd5b611e5c83611c03565b9150611e6a60208401611c03565b90509250929050565b600181811c90821680611e8757607f821691505b602082108103611ea757634e487b7160e01b600052602260045260246000fd5b50919050565b60208082526030908201527f4b495031373a207472616e736665722063616c6c6572206973206e6f74206f7760408201526f1b995c881b9bdc88185c1c1c9bdd995960821b606082015260800190565b634e487b7160e01b600052603260045260246000fd5b634e487b7160e01b600052601160045260246000fd5b8181038181111561031757610317611f13565b8082018082111561031757610317611f13565b601f82111561054157600081815260208120601f850160051c81016020861015611f765750805b601f850160051c820191505b81811015611f9557828155600101611f82565b505050505050565b815167ffffffffffffffff811115611fb757611fb7611d4e565b611fcb81611fc58454611e73565b84611f4f565b602080601f8311600181146120005760008415611fe85750858301515b600019600386901b1c1916600185901b178555611f95565b600085815260208120601f198616915b8281101561202f57888601518255948401946001909101908401612010565b508582101561204d5787850151600019600388901b60f8161c191681555b5050505050600190811b01905550565b6000825161206f818460208701611b87565b9190910192915050565b60208082526041908201527f4b495031373a207472616e7366657220746f206e6f6e20494b4950313752656360408201527f65697665722f49455243373231526563656976657220696d706c656d656e74656060820152603960f91b608082015260a00190565b600083516120f2818460208801611b87565b835190830190612106818360208801611b87565b01949350505050565b6001600160a01b038581168252841660208201526040810183905260806060820181905260009061214290830184611bab565b9695505050505050565b60006020828403121561215e57600080fd5b81516116c581611b54565b60006001820161217b5761217b611f13565b5060010190565b634e487b7160e01b600052601260045260246000fd5b6000826121a7576121a7612182565b500490565b6000826121bb576121bb612182565b500690565b634e487b7160e01b600052603160045260246000fdfea26469706673582212207499b026b010795aa322058b1cb10d5bb4b1c526dd90291c2a1ba8acb08124ea64736f6c6343000812003368747470733a2f2f6769746875622e636f6d2f6b6a656f6d2f644e46544578616d706c652f61737365742f6d657461646174612f6c6576656c32302e6a736f6e68747470733a2f2f6769746875622e636f6d2f6b6a656f6d2f644e46544578616d706c652f61737365742f6d657461646174612f6c6576656c38302e6a736f6e68747470733a2f2f6769746875622e636f6d2f6b6a656f6d2f644e46544578616d706c652f61737365742f6d657461646174612f6c6576656c35302e6a736f6e",
  "devdoc": {
    "events": {
      "Approval(address,address,uint256)": {
        "details": "Emitted when `owner` enables `approved` to manage the `tokenId` token."
      },
      "ApprovalForAll(address,address,bool)": {
        "details": "Emitted when `owner` enables or disables (`approved`) `operator` to manage all of its assets."
      },
      "Transfer(address,address,uint256)": {
        "details": "Emitted when `tokenId` token is transferred from `from` to `to`."
      }
    },
    "kind": "dev",
    "methods": {
      "approve(address,uint256)": {
        "details": "See {IKIP17-approve}."
      },
      "balanceOf(address)": {
        "details": "See {IKIP17-balanceOf}."
      },
      "getApproved(uint256)": {
        "details": "See {IKIP17-getApproved}."
      },
      "isApprovedForAll(address,address)": {
        "details": "See {IKIP17-isApprovedForAll}."
      },
      "name()": {
        "details": "See {IKIP17Metadata-name}."
      },
      "owner()": {
        "details": "Returns the address of the current owner."
      },
      "ownerOf(uint256)": {
        "details": "See {IKIP17-ownerOf}."
      },
      "renounceOwnership()": {
        "details": "Leaves the contract without owner. It will not be possible to call `onlyOwner` functions anymore. Can only be called by the current owner. NOTE: Renouncing ownership will leave the contract without an owner, thereby removing any functionality that is only available to the owner."
      },
      "safeTransferFrom(address,address,uint256)": {
        "details": "See {IKIP17-safeTransferFrom}."
      },
      "safeTransferFrom(address,address,uint256,bytes)": {
        "details": "See {IKIP17-safeTransferFrom}."
      },
      "setApprovalForAll(address,bool)": {
        "details": "See {IKIP17-setApprovalForAll}."
      },
      "symbol()": {
        "details": "See {IKIP17Metadata-symbol}."
      },
      "tokenByIndex(uint256)": {
        "details": "See {IKIP17Enumerable-tokenByIndex}."
      },
      "tokenOfOwnerByIndex(address,uint256)": {
        "details": "See {IKIP17Enumerable-tokenOfOwnerByIndex}."
      },
      "totalSupply()": {
        "details": "See {IKIP17Enumerable-totalSupply}."
      },
      "transferFrom(address,address,uint256)": {
        "details": "See {IKIP17-transferFrom}."
      },
      "transferOwnership(address)": {
        "details": "Transfers ownership of the contract to a new account (`newOwner`). Can only be called by the current owner."
      }
    },
    "version": 1
  },
  "userdoc": {
    "kind": "user",
    "methods": {},
    "version": 1
  },
  "storageLayout": {
    "storage": [
      {
        "astId": 162,
        "contract": "contracts/dnft-example.sol:KdynamicNFT",
        "label": "_name",
        "offset": 0,
        "slot": "0",
        "type": "t_string_storage"
      },
      {
        "astId": 164,
        "contract": "contracts/dnft-example.sol:KdynamicNFT",
        "label": "_symbol",
        "offset": 0,
        "slot": "1",
        "type": "t_string_storage"
      },
      {
        "astId": 168,
        "contract": "contracts/dnft-example.sol:KdynamicNFT",
        "label": "_owners",
        "offset": 0,
        "slot": "2",
        "type": "t_mapping(t_uint256,t_address)"
      },
      {
        "astId": 172,
        "contract": "contracts/dnft-example.sol:KdynamicNFT",
        "label": "_balances",
        "offset": 0,
        "slot": "3",
        "type": "t_mapping(t_address,t_uint256)"
      },
      {
        "astId": 176,
        "contract": "contracts/dnft-example.sol:KdynamicNFT",
        "label": "_tokenApprovals",
        "offset": 0,
        "slot": "4",
        "type": "t_mapping(t_uint256,t_address)"
      },
      {
        "astId": 182,
        "contract": "contracts/dnft-example.sol:KdynamicNFT",
        "label": "_operatorApprovals",
        "offset": 0,
        "slot": "5",
        "type": "t_mapping(t_address,t_mapping(t_address,t_bool))"
      },
      {
        "astId": 1150,
        "contract": "contracts/dnft-example.sol:KdynamicNFT",
        "label": "_ownedTokens",
        "offset": 0,
        "slot": "6",
        "type": "t_mapping(t_address,t_mapping(t_uint256,t_uint256))"
      },
      {
        "astId": 1154,
        "contract": "contracts/dnft-example.sol:KdynamicNFT",
        "label": "_ownedTokensIndex",
        "offset": 0,
        "slot": "7",
        "type": "t_mapping(t_uint256,t_uint256)"
      },
      {
        "astId": 1157,
        "contract": "contracts/dnft-example.sol:KdynamicNFT",
        "label": "_allTokens",
        "offset": 0,
        "slot": "8",
        "type": "t_array(t_uint256)dyn_storage"
      },
      {
        "astId": 1161,
        "contract": "contracts/dnft-example.sol:KdynamicNFT",
        "label": "_allTokensIndex",
        "offset": 0,
        "slot": "9",
        "type": "t_mapping(t_uint256,t_uint256)"
      },
      {
        "astId": 1486,
        "contract": "contracts/dnft-example.sol:KdynamicNFT",
        "label": "_tokenURIs",
        "offset": 0,
        "slot": "10",
        "type": "t_mapping(t_uint256,t_string_storage)"
      },
      {
        "astId": 1645,
        "contract": "contracts/dnft-example.sol:KdynamicNFT",
        "label": "_owner",
        "offset": 0,
        "slot": "11",
        "type": "t_address"
      },
      {
        "astId": 2400,
        "contract": "contracts/dnft-example.sol:KdynamicNFT",
        "label": "_tokenIdCounter",
        "offset": 0,
        "slot": "12",
        "type": "t_struct(Counter)2083_storage"
      },
      {
        "astId": 2404,
        "contract": "contracts/dnft-example.sol:KdynamicNFT",
        "label": "_experienceMap",
        "offset": 0,
        "slot": "13",
        "type": "t_mapping(t_uint256,t_uint256)"
      },
      {
        "astId": 2407,
        "contract": "contracts/dnft-example.sol:KdynamicNFT",
        "label": "_level20",
        "offset": 0,
        "slot": "14",
        "type": "t_string_storage"
      },
      {
        "astId": 2410,
        "contract": "contracts/dnft-example.sol:KdynamicNFT",
        "label": "_level50",
        "offset": 0,
        "slot": "15",
        "type": "t_string_storage"
      },
      {
        "astId": 2413,
        "contract": "contracts/dnft-example.sol:KdynamicNFT",
        "label": "_level80",
        "offset": 0,
        "slot": "16",
        "type": "t_string_storage"
      }
    ],
    "types": {
      "t_address": {
        "encoding": "inplace",
        "label": "address",
        "numberOfBytes": "20"
      },
      "t_array(t_uint256)dyn_storage": {
        "base": "t_uint256",
        "encoding": "dynamic_array",
        "label": "uint256[]",
        "numberOfBytes": "32"
      },
      "t_bool": {
        "encoding": "inplace",
        "label": "bool",
        "numberOfBytes": "1"
      },
      "t_mapping(t_address,t_bool)": {
        "encoding": "mapping",
        "key": "t_address",
        "label": "mapping(address => bool)",
        "numberOfBytes": "32",
        "value": "t_bool"
      },
      "t_mapping(t_address,t_mapping(t_address,t_bool))": {
        "encoding": "mapping",
        "key": "t_address",
        "label": "mapping(address => mapping(address => bool))",
        "numberOfBytes": "32",
        "value": "t_mapping(t_address,t_bool)"
      },
      "t_mapping(t_address,t_mapping(t_uint256,t_uint256))": {
        "encoding": "mapping",
        "key": "t_address",
        "label": "mapping(address => mapping(uint256 => uint256))",
        "numberOfBytes": "32",
        "value": "t_mapping(t_uint256,t_uint256)"
      },
      "t_mapping(t_address,t_uint256)": {
        "encoding": "mapping",
        "key": "t_address",
        "label": "mapping(address => uint256)",
        "numberOfBytes": "32",
        "value": "t_uint256"
      },
      "t_mapping(t_uint256,t_address)": {
        "encoding": "mapping",
        "key": "t_uint256",
        "label": "mapping(uint256 => address)",
        "numberOfBytes": "32",
        "value": "t_address"
      },
      "t_mapping(t_uint256,t_string_storage)": {
        "encoding": "mapping",
        "key": "t_uint256",
        "label": "mapping(uint256 => string)",
        "numberOfBytes": "32",
        "value": "t_string_storage"
      },
      "t_mapping(t_uint256,t_uint256)": {
        "encoding": "mapping",
        "key": "t_uint256",
        "label": "mapping(uint256 => uint256)",
        "numberOfBytes": "32",
        "value": "t_uint256"
      },
      "t_string_storage": {
        "encoding": "bytes",
        "label": "string",
        "numberOfBytes": "32"
      },
      "t_struct(Counter)2083_storage": {
        "encoding": "inplace",
        "label": "struct Counters.Counter",
        "members": [
          {
            "astId": 2082,
            "contract": "contracts/dnft-example.sol:KdynamicNFT",
            "label": "_value",
            "offset": 0,
            "slot": "0",
            "type": "t_uint256"
          }
        ],
        "numberOfBytes": "32"
      },
      "t_uint256": {
        "encoding": "inplace",
        "label": "uint256",
        "numberOfBytes": "32"
      }
    }
  }
}